{
  "_format": "hh-sol-artifact-1",
  "contractName": "NFTMarketplace",
  "sourceName": "contracts/NFTMarketplace.sol",
  "abi": [
    {
      "inputs": [],
      "stateMutability": "nonpayable",
      "type": "constructor"
    },
    {
      "anonymous": false,
      "inputs": [
        {
          "indexed": true,
          "internalType": "address",
          "name": "owner",
          "type": "address"
        },
        {
          "indexed": true,
          "internalType": "address",
          "name": "approved",
          "type": "address"
        },
        {
          "indexed": true,
          "internalType": "uint256",
          "name": "tokenId",
          "type": "uint256"
        }
      ],
      "name": "Approval",
      "type": "event"
    },
    {
      "anonymous": false,
      "inputs": [
        {
          "indexed": true,
          "internalType": "address",
          "name": "owner",
          "type": "address"
        },
        {
          "indexed": true,
          "internalType": "address",
          "name": "operator",
          "type": "address"
        },
        {
          "indexed": false,
          "internalType": "bool",
          "name": "approved",
          "type": "bool"
        }
      ],
      "name": "ApprovalForAll",
      "type": "event"
    },
    {
      "anonymous": false,
      "inputs": [
        {
          "indexed": false,
          "internalType": "uint256",
          "name": "_fromTokenId",
          "type": "uint256"
        },
        {
          "indexed": false,
          "internalType": "uint256",
          "name": "_toTokenId",
          "type": "uint256"
        }
      ],
      "name": "BatchMetadataUpdate",
      "type": "event"
    },
    {
      "anonymous": false,
      "inputs": [
        {
          "indexed": false,
          "internalType": "uint256",
          "name": "_tokenId",
          "type": "uint256"
        }
      ],
      "name": "MetadataUpdate",
      "type": "event"
    },
    {
      "anonymous": false,
      "inputs": [
        {
          "indexed": true,
          "internalType": "address",
          "name": "from",
          "type": "address"
        },
        {
          "indexed": true,
          "internalType": "address",
          "name": "to",
          "type": "address"
        },
        {
          "indexed": true,
          "internalType": "uint256",
          "name": "tokenId",
          "type": "uint256"
        }
      ],
      "name": "Transfer",
      "type": "event"
    },
    {
      "inputs": [
        {
          "internalType": "address",
          "name": "to",
          "type": "address"
        },
        {
          "internalType": "uint256",
          "name": "tokenId",
          "type": "uint256"
        }
      ],
      "name": "approve",
      "outputs": [],
      "stateMutability": "nonpayable",
      "type": "function"
    },
    {
      "inputs": [
        {
          "internalType": "address",
          "name": "owner",
          "type": "address"
        }
      ],
      "name": "balanceOf",
      "outputs": [
        {
          "internalType": "uint256",
          "name": "",
          "type": "uint256"
        }
      ],
      "stateMutability": "view",
      "type": "function"
    },
    {
      "inputs": [
        {
          "internalType": "uint256",
          "name": "tokenId",
          "type": "uint256"
        }
      ],
      "name": "burnNFT",
      "outputs": [],
      "stateMutability": "nonpayable",
      "type": "function"
    },
    {
      "inputs": [
        {
          "internalType": "uint256",
          "name": "tokenId",
          "type": "uint256"
        }
      ],
      "name": "cancelListing",
      "outputs": [],
      "stateMutability": "nonpayable",
      "type": "function"
    },
    {
      "inputs": [
        {
          "internalType": "string",
          "name": "tokenURI",
          "type": "string"
        },
        {
          "internalType": "uint256",
          "name": "price",
          "type": "uint256"
        }
      ],
      "name": "createToken",
      "outputs": [
        {
          "internalType": "uint256",
          "name": "",
          "type": "uint256"
        }
      ],
      "stateMutability": "payable",
      "type": "function"
    },
    {
      "inputs": [
        {
          "internalType": "uint256",
          "name": "tokenId",
          "type": "uint256"
        }
      ],
      "name": "executeSale",
      "outputs": [],
      "stateMutability": "payable",
      "type": "function"
    },
    {
      "inputs": [],
      "name": "getAllNFTs",
      "outputs": [
        {
          "components": [
            {
              "internalType": "uint256",
              "name": "tokenId",
              "type": "uint256"
            },
            {
              "internalType": "address payable",
              "name": "owner",
              "type": "address"
            },
            {
              "internalType": "address payable",
              "name": "seller",
              "type": "address"
            },
            {
              "internalType": "address payable",
              "name": "creator",
              "type": "address"
            },
            {
              "internalType": "uint256",
              "name": "price",
              "type": "uint256"
            },
            {
              "internalType": "bool",
              "name": "currentlyListed",
              "type": "bool"
            }
          ],
          "internalType": "struct NFTMarketplace.ListedToken[]",
          "name": "",
          "type": "tuple[]"
        }
      ],
      "stateMutability": "view",
      "type": "function"
    },
    {
      "inputs": [
        {
          "internalType": "uint256",
          "name": "tokenId",
          "type": "uint256"
        }
      ],
      "name": "getApproved",
      "outputs": [
        {
          "internalType": "address",
          "name": "",
          "type": "address"
        }
      ],
      "stateMutability": "view",
      "type": "function"
    },
    {
      "inputs": [],
      "name": "getCurrentToken",
      "outputs": [
        {
          "internalType": "uint256",
          "name": "",
          "type": "uint256"
        }
      ],
      "stateMutability": "view",
      "type": "function"
    },
    {
      "inputs": [],
      "name": "getLatestIdToListedToken",
      "outputs": [
        {
          "components": [
            {
              "internalType": "uint256",
              "name": "tokenId",
              "type": "uint256"
            },
            {
              "internalType": "address payable",
              "name": "owner",
              "type": "address"
            },
            {
              "internalType": "address payable",
              "name": "seller",
              "type": "address"
            },
            {
              "internalType": "address payable",
              "name": "creator",
              "type": "address"
            },
            {
              "internalType": "uint256",
              "name": "price",
              "type": "uint256"
            },
            {
              "internalType": "bool",
              "name": "currentlyListed",
              "type": "bool"
            }
          ],
          "internalType": "struct NFTMarketplace.ListedToken",
          "name": "",
          "type": "tuple"
        }
      ],
      "stateMutability": "view",
      "type": "function"
    },
    {
      "inputs": [],
      "name": "getListPrice",
      "outputs": [
        {
          "internalType": "uint256",
          "name": "",
          "type": "uint256"
        }
      ],
      "stateMutability": "view",
      "type": "function"
    },
    {
      "inputs": [
        {
          "internalType": "uint256",
          "name": "tokenId",
          "type": "uint256"
        }
      ],
      "name": "getListedTokenForId",
      "outputs": [
        {
          "components": [
            {
              "internalType": "uint256",
              "name": "tokenId",
              "type": "uint256"
            },
            {
              "internalType": "address payable",
              "name": "owner",
              "type": "address"
            },
            {
              "internalType": "address payable",
              "name": "seller",
              "type": "address"
            },
            {
              "internalType": "address payable",
              "name": "creator",
              "type": "address"
            },
            {
              "internalType": "uint256",
              "name": "price",
              "type": "uint256"
            },
            {
              "internalType": "bool",
              "name": "currentlyListed",
              "type": "bool"
            }
          ],
          "internalType": "struct NFTMarketplace.ListedToken",
          "name": "",
          "type": "tuple"
        }
      ],
      "stateMutability": "view",
      "type": "function"
    },
    {
      "inputs": [],
      "name": "getMyNFTs",
      "outputs": [
        {
          "components": [
            {
              "internalType": "uint256",
              "name": "tokenId",
              "type": "uint256"
            },
            {
              "internalType": "address payable",
              "name": "owner",
              "type": "address"
            },
            {
              "internalType": "address payable",
              "name": "seller",
              "type": "address"
            },
            {
              "internalType": "address payable",
              "name": "creator",
              "type": "address"
            },
            {
              "internalType": "uint256",
              "name": "price",
              "type": "uint256"
            },
            {
              "internalType": "bool",
              "name": "currentlyListed",
              "type": "bool"
            }
          ],
          "internalType": "struct NFTMarketplace.ListedToken[]",
          "name": "",
          "type": "tuple[]"
        }
      ],
      "stateMutability": "view",
      "type": "function"
    },
    {
      "inputs": [
        {
          "internalType": "address",
          "name": "owner",
          "type": "address"
        },
        {
          "internalType": "address",
          "name": "operator",
          "type": "address"
        }
      ],
      "name": "isApprovedForAll",
      "outputs": [
        {
          "internalType": "bool",
          "name": "",
          "type": "bool"
        }
      ],
      "stateMutability": "view",
      "type": "function"
    },
    {
      "inputs": [],
      "name": "name",
      "outputs": [
        {
          "internalType": "string",
          "name": "",
          "type": "string"
        }
      ],
      "stateMutability": "view",
      "type": "function"
    },
    {
      "inputs": [
        {
          "internalType": "uint256",
          "name": "tokenId",
          "type": "uint256"
        }
      ],
      "name": "ownerOf",
      "outputs": [
        {
          "internalType": "address",
          "name": "",
          "type": "address"
        }
      ],
      "stateMutability": "view",
      "type": "function"
    },
    {
      "inputs": [
        {
          "internalType": "address",
          "name": "from",
          "type": "address"
        },
        {
          "internalType": "address",
          "name": "to",
          "type": "address"
        },
        {
          "internalType": "uint256",
          "name": "tokenId",
          "type": "uint256"
        }
      ],
      "name": "safeTransferFrom",
      "outputs": [],
      "stateMutability": "nonpayable",
      "type": "function"
    },
    {
      "inputs": [
        {
          "internalType": "address",
          "name": "from",
          "type": "address"
        },
        {
          "internalType": "address",
          "name": "to",
          "type": "address"
        },
        {
          "internalType": "uint256",
          "name": "tokenId",
          "type": "uint256"
        },
        {
          "internalType": "bytes",
          "name": "data",
          "type": "bytes"
        }
      ],
      "name": "safeTransferFrom",
      "outputs": [],
      "stateMutability": "nonpayable",
      "type": "function"
    },
    {
      "inputs": [
        {
          "internalType": "uint256",
          "name": "tokenId",
          "type": "uint256"
        },
        {
          "internalType": "uint256",
          "name": "price",
          "type": "uint256"
        }
      ],
      "name": "sellNFT",
      "outputs": [],
      "stateMutability": "payable",
      "type": "function"
    },
    {
      "inputs": [
        {
          "internalType": "address",
          "name": "operator",
          "type": "address"
        },
        {
          "internalType": "bool",
          "name": "approved",
          "type": "bool"
        }
      ],
      "name": "setApprovalForAll",
      "outputs": [],
      "stateMutability": "nonpayable",
      "type": "function"
    },
    {
      "inputs": [
        {
          "internalType": "bytes4",
          "name": "interfaceId",
          "type": "bytes4"
        }
      ],
      "name": "supportsInterface",
      "outputs": [
        {
          "internalType": "bool",
          "name": "",
          "type": "bool"
        }
      ],
      "stateMutability": "view",
      "type": "function"
    },
    {
      "inputs": [],
      "name": "symbol",
      "outputs": [
        {
          "internalType": "string",
          "name": "",
          "type": "string"
        }
      ],
      "stateMutability": "view",
      "type": "function"
    },
    {
      "inputs": [
        {
          "internalType": "uint256",
          "name": "tokenId",
          "type": "uint256"
        }
      ],
      "name": "tokenURI",
      "outputs": [
        {
          "internalType": "string",
          "name": "",
          "type": "string"
        }
      ],
      "stateMutability": "view",
      "type": "function"
    },
    {
      "inputs": [
        {
          "internalType": "address",
          "name": "from",
          "type": "address"
        },
        {
          "internalType": "address",
          "name": "to",
          "type": "address"
        },
        {
          "internalType": "uint256",
          "name": "tokenId",
          "type": "uint256"
        }
      ],
      "name": "transferFrom",
      "outputs": [],
      "stateMutability": "nonpayable",
      "type": "function"
    },
    {
      "inputs": [
        {
          "internalType": "address",
          "name": "to",
          "type": "address"
        },
        {
          "internalType": "uint256",
          "name": "tokenId",
          "type": "uint256"
        }
      ],
      "name": "transferNFT",
      "outputs": [],
      "stateMutability": "nonpayable",
      "type": "function"
    },
    {
      "inputs": [
        {
          "internalType": "uint256",
          "name": "_listPrice",
          "type": "uint256"
        }
      ],
      "name": "updateListPrice",
      "outputs": [],
      "stateMutability": "payable",
      "type": "function"
    }
  ],
  "bytecode": "0x608060405266038d7ea4c68000600a553480156200001c57600080fd5b50604080518082018252600f81526e4e4654204d61726b6574706c61636560881b6020808301918252835180850190945260048452634e46544d60e01b9084015281519192916200007091600091620000a1565b50805162000086906001906020840190620000a1565b5050600780546001600160a01b031916331790555062000184565b828054620000af9062000147565b90600052602060002090601f016020900481019282620000d357600085556200011e565b82601f10620000ee57805160ff19168380011785556200011e565b828001600101855582156200011e579182015b828111156200011e57825182559160200191906001019062000101565b506200012c92915062000130565b5090565b5b808211156200012c576000815560010162000131565b600181811c908216806200015c57607f821691505b602082108114156200017e57634e487b7160e01b600052602260045260246000fd5b50919050565b61273180620001946000396000f3fe6080604052600436106101815760003560e01c80638e264590116100d1578063b88d4fde1161008a578063d1a88ae511610064578063d1a88ae514610446578063e0391b091461045b578063e985e9c514610470578063ef2d1746146104b957600080fd5b8063b88d4fde146103f3578063c322579c14610413578063c87b56dd1461042657600080fd5b80638e2645901461034b57806391a48a1e1461037857806394ab67fe1461038b57806395d89b41146103ab5780639b1225c4146103c0578063a22cb465146103d357600080fd5b8063305a67a81161013e5780636352211e116101185780636352211e146102d957806368f1945f146102f957806370a082311461031857806372b3b6201461033857600080fd5b8063305a67a81461027757806342842e0e14610297578063629cb2e4146102b757600080fd5b806301ffc9a71461018657806306fdde03146101bb578063081812fc146101dd578063095ea7b31461021557806323b872dd146102375780632890e0d714610257575b600080fd5b34801561019257600080fd5b506101a66101a13660046122f2565b6104ce565b60405190151581526020015b60405180910390f35b3480156101c757600080fd5b506101d06104f9565b6040516101b291906124eb565b3480156101e957600080fd5b506101fd6101f8366004612380565b61058b565b6040516001600160a01b0390911681526020016101b2565b34801561022157600080fd5b506102356102303660046122c9565b6105b2565b005b34801561024357600080fd5b506102356102523660046121db565b6106cd565b34801561026357600080fd5b50610235610272366004612380565b6106fe565b34801561028357600080fd5b50610235610292366004612380565b610788565b3480156102a357600080fd5b506102356102b23660046121db565b610885565b3480156102c357600080fd5b506102cc6108a0565b6040516101b2919061249d565b3480156102e557600080fd5b506101fd6102f4366004612380565b610a86565b34801561030557600080fd5b50600a545b6040519081526020016101b2565b34801561032457600080fd5b5061030a61033336600461218f565b610ae6565b61030a61034636600461232a565b610b6c565b34801561035757600080fd5b5061036b610366366004612380565b610d0f565b6040516101b29190612611565b610235610386366004612398565b610d83565b34801561039757600080fd5b506102356103a63660046122c9565b610e5a565b3480156103b757600080fd5b506101d0610f33565b6102356103ce366004612380565b610f42565b3480156103df57600080fd5b506102356103ee36600461228f565b611108565b3480156103ff57600080fd5b5061023561040e366004612216565b611113565b610235610421366004612380565b611145565b34801561043257600080fd5b506101d0610441366004612380565b6111b0565b34801561045257600080fd5b5061036b6112c1565b34801561046757600080fd5b506102cc611342565b34801561047c57600080fd5b506101a661048b3660046121a9565b6001600160a01b03918216600090815260056020908152604080832093909416825291909152205460ff1690565b3480156104c557600080fd5b5061030a611562565b60006001600160e01b03198216632483248360e11b14806104f357506104f382611572565b92915050565b60606000805461050890612663565b80601f016020809104026020016040519081016040528092919081815260200182805461053490612663565b80156105815780601f1061055657610100808354040283529160200191610581565b820191906000526020600020905b81548152906001019060200180831161056457829003601f168201915b5050505050905090565b6000610596826115c2565b506000908152600460205260409020546001600160a01b031690565b60006105bd82610a86565b9050806001600160a01b0316836001600160a01b031614156106305760405162461bcd60e51b815260206004820152602160248201527f4552433732313a20617070726f76616c20746f2063757272656e74206f776e656044820152603960f91b60648201526084015b60405180910390fd5b336001600160a01b038216148061064c575061064c813361048b565b6106be5760405162461bcd60e51b815260206004820152603d60248201527f4552433732313a20617070726f76652063616c6c6572206973206e6f7420746f60448201527f6b656e206f776e6572206f7220617070726f76656420666f7220616c6c0000006064820152608401610627565b6106c88383611621565b505050565b6106d7338261168f565b6106f35760405162461bcd60e51b8152600401610627906124fe565b6106c883838361170d565b3361070882610a86565b6001600160a01b03161461072e5760405162461bcd60e51b8152600401610627906125e2565b6000818152600b602052604081208181556001810180546001600160a01b03199081169091556002820180548216905560038201805490911690556004810191909155600501805460ff1916905561078581611871565b50565b6000818152600b60205260409020600581015460ff1615156001146107e35760405162461bcd60e51b8152602060048201526011602482015270139195081a5cc81b9bdd081b1a5cdd1959607a1b6044820152606401610627565b60028101546001600160a01b0316331461084a5760405162461bcd60e51b815260206004820152602260248201527f4f6e6c792073656c6c65722063616e2063616e63656c20746865206c697374696044820152616e6760f01b6064820152608401610627565b61085530338461170d565b6001810180546001600160a01b031990811633179091556002820180549091169055600501805460ff1916905550565b6106c883838360405180602001604052806000815250611113565b606060006108ad60085490565b905060008060005b838110156109105733600b60006108cd84600161261f565b81526020810191909152604001600020600101546001600160a01b031614156108fe576108fb60018461261f565b92505b806109088161269e565b9150506108b5565b5060008267ffffffffffffffff81111561093a57634e487b7160e01b600052604160045260246000fd5b60405190808252806020026020018201604052801561097357816020015b610960611ff5565b8152602001906001900390816109585790505b50905060005b84811015610a7d5733600b600061099184600161261f565b81526020810191909152604001600020600101546001600160a01b03161415610a6b5760006109c182600161261f565b6000818152600b6020908152604091829020825160c0810184528154815260018201546001600160a01b039081169382019390935260028201548316938101939093526003810154909116606083015260048101546080830152600581015460ff16151560a0830152855192935091859087908110610a5057634e487b7160e01b600052603260045260246000fd5b6020908102919091010152610a6660018661261f565b945050505b80610a758161269e565b915050610979565b50949350505050565b6000818152600260205260408120546001600160a01b0316806104f35760405162461bcd60e51b8152602060048201526018602482015277115490cdcc8c4e881a5b9d985b1a59081d1bdad95b88125160421b6044820152606401610627565b60006001600160a01b038216610b505760405162461bcd60e51b815260206004820152602960248201527f4552433732313a2061646472657373207a65726f206973206e6f7420612076616044820152683634b21037bbb732b960b91b6064820152608401610627565b506001600160a01b031660009081526003602052604090205490565b6000600a543414610bd05760405162461bcd60e51b815260206004820152602860248201527f53656e6420656e6f75676820657468657220746f20636f766572206c697374696044820152676e6720707269636560c01b6064820152608401610627565b60008211610c2e5760405162461bcd60e51b815260206004820152602560248201527f4d616b6520737572652074686520707269636520697320677265617465722074604482015264068616e20360dc1b6064820152608401610627565b610c3c600880546001019055565b6000610c4760085490565b9050610c5333826118b1565b610c5d81856118cb565b6040805160c081018252828152336020808301828152600084860181815260608601948552608086018a8152600160a088018181528a8552600b9096529790922095518655915195850180546001600160a01b03199081166001600160a01b039889161790915591516002860180548416918816919091179055925160038501805490921695169490941790935551600482015590516005909101805460ff19169115159190911790555b9392505050565b610d17611ff5565b506000908152600b6020908152604091829020825160c0810184528154815260018201546001600160a01b0390811693820193909352600282015483169381019390935260038101549091166060830152600481015460808301526005015460ff16151560a082015290565b33610d8d83610a86565b6001600160a01b031614610db35760405162461bcd60e51b8152600401610627906125e2565b60008111610e035760405162461bcd60e51b815260206004820152601f60248201527f5072696365206d7573742062652067726561746572207468616e207a65726f006044820152606401610627565b610e0e33308461170d565b6000918252600b6020526040909120600180820180546001600160a01b03199081163017909155600283018054909116331790556004820192909255600501805460ff19169091179055565b33610e6482610a86565b6001600160a01b031614610e8a5760405162461bcd60e51b8152600401610627906125e2565b6001600160a01b038216610ee05760405162461bcd60e51b815260206004820152601f60248201527f43616e6e6f74207472616e7366657220746f207a65726f2061646472657373006044820152606401610627565b6000818152600b602052604090206001810180546001600160a01b0385166001600160a01b0319918216179091556002820180549091169055600501805460ff19169055610f2f33838361170d565b5050565b60606001805461050890612663565b6000818152600b602052604090206004810154600282015460059092015490916001600160a01b03169060ff161515600114610fc05760405162461bcd60e51b815260206004820152601860248201527f54686973204e4654206973206e6f7420666f722073616c6500000000000000006044820152606401610627565b813414611037576040805162461bcd60e51b81526020600482015260248101919091527f506c65617365207375626d6974207468652061736b696e67207072696365206960448201527f6e206f7264657220746f20636f6d706c657465207468652070757263686173656064820152608401610627565b6000838152600b602052604081206001810180546001600160a01b0319908116331790915560058201805460ff19169055600282018054909116905560040155611085600980546001019055565b61109030338561170d565b600754600a546040516001600160a01b039092169181156108fc0291906000818181858888f193505050501580156110cc573d6000803e3d6000fd5b506040516001600160a01b038216903480156108fc02916000818181858888f19350505050158015611102573d6000803e3d6000fd5b50505050565b610f2f33838361199d565b61111d338361168f565b6111395760405162461bcd60e51b8152600401610627906124fe565b61110284848484611a6c565b6007546001600160a01b031633146111ab5760405162461bcd60e51b815260206004820152602360248201527f4f6e6c79206f776e65722063616e20757064617465206c697374696e6720707260448201526269636560e81b6064820152608401610627565b600a55565b60606111bb826115c2565b600082815260066020526040812080546111d490612663565b80601f016020809104026020016040519081016040528092919081815260200182805461120090612663565b801561124d5780601f106112225761010080835404028352916020019161124d565b820191906000526020600020905b81548152906001019060200180831161123057829003601f168201915b50505050509050600061126b60408051602081019091526000815290565b905080516000141561127e575092915050565b8151156112b0578082604051602001611298929190612431565b60405160208183030381529060405292505050919050565b6112b984611a9f565b949350505050565b6112c9611ff5565b60006112d460085490565b6000908152600b6020908152604091829020825160c0810184528154815260018201546001600160a01b0390811693820193909352600282015483169381019390935260038101549091166060830152600481015460808301526005015460ff16151560a082015292915050565b6060600061134f60085490565b905060008167ffffffffffffffff81111561137a57634e487b7160e01b600052604160045260246000fd5b6040519080825280602002602001820160405280156113b357816020015b6113a0611ff5565b8152602001906001900390816113985790505b509050600060015b83811161148b576000818152600b6020526040902060018101546001600160a01b0316301415611478576040805160c0810182528254815260018301546001600160a01b03908116602083015260028401548116928201929092526003830154909116606082015260048201546080820152600582015460ff16151560a0820152845185908590811061145e57634e487b7160e01b600052603260045260246000fd5b602002602001018190525082806114749061269e565b9350505b50806114838161269e565b9150506113bb565b5060008167ffffffffffffffff8111156114b557634e487b7160e01b600052604160045260246000fd5b6040519080825280602002602001820160405280156114ee57816020015b6114db611ff5565b8152602001906001900390816114d35790505b50905060005b82811015610a7d5783818151811061151c57634e487b7160e01b600052603260045260246000fd5b602002602001015182828151811061154457634e487b7160e01b600052603260045260246000fd5b6020026020010181905250808061155a9061269e565b9150506114f4565b600061156d60085490565b905090565b60006001600160e01b031982166380ac58cd60e01b14806115a357506001600160e01b03198216635b5e139f60e01b145b806104f357506301ffc9a760e01b6001600160e01b03198316146104f3565b6000818152600260205260409020546001600160a01b03166107855760405162461bcd60e51b8152602060048201526018602482015277115490cdcc8c4e881a5b9d985b1a59081d1bdad95b88125160421b6044820152606401610627565b600081815260046020526040902080546001600160a01b0319166001600160a01b038416908117909155819061165682610a86565b6001600160a01b03167f8c5be1e5ebec7d5bd14f71427d1e84f3dd0314c0f7b2291e5b200ac8c7c3b92560405160405180910390a45050565b60008061169b83610a86565b9050806001600160a01b0316846001600160a01b031614806116e257506001600160a01b0380821660009081526005602090815260408083209388168352929052205460ff165b806112b95750836001600160a01b03166116fb8461058b565b6001600160a01b031614949350505050565b826001600160a01b031661172082610a86565b6001600160a01b0316146117465760405162461bcd60e51b81526004016106279061259d565b6001600160a01b0382166117a85760405162461bcd60e51b8152602060048201526024808201527f4552433732313a207472616e7366657220746f20746865207a65726f206164646044820152637265737360e01b6064820152608401610627565b826001600160a01b03166117bb82610a86565b6001600160a01b0316146117e15760405162461bcd60e51b81526004016106279061259d565b600081815260046020908152604080832080546001600160a01b03199081169091556001600160a01b0387811680865260038552838620805460001901905590871680865283862080546001019055868652600290945282852080549092168417909155905184937fddf252ad1be2c89b69c2b068fc378daa952ba7f163c4a11628f55a4df523b3ef91a4505050565b61187a81611b12565b6000818152600660205260409020805461189390612663565b1590506107855760008181526006602052604081206107859161202a565b610f2f828260405180602001604052806000815250611ba7565b6000828152600260205260409020546001600160a01b03166119465760405162461bcd60e51b815260206004820152602e60248201527f45524337323155524953746f726167653a2055524920736574206f66206e6f6e60448201526d32bc34b9ba32b73a103a37b5b2b760911b6064820152608401610627565b6000828152600660209081526040909120825161196592840190612064565b506040518281527ff8e1a15aba9398e019f0b49df1a4fde98ee17ae345cb5f6b5e2c27f5033e8ce79060200160405180910390a15050565b816001600160a01b0316836001600160a01b031614156119ff5760405162461bcd60e51b815260206004820152601960248201527f4552433732313a20617070726f766520746f2063616c6c6572000000000000006044820152606401610627565b6001600160a01b03838116600081815260056020908152604080832094871680845294825291829020805460ff191686151590811790915591519182527f17307eab39ab6107e8899845ad3d59bd9653f200f220920489ca2b5937696c31910160405180910390a3505050565b611a7784848461170d565b611a8384848484611bda565b6111025760405162461bcd60e51b81526004016106279061254b565b6060611aaa826115c2565b6000611ac160408051602081019091526000815290565b90506000815111611ae15760405180602001604052806000815250610d08565b80611aeb84611ce7565b604051602001611afc929190612431565b6040516020818303038152906040529392505050565b6000611b1d82610a86565b9050611b2882610a86565b600083815260046020908152604080832080546001600160a01b03199081169091556001600160a01b0385168085526003845282852080546000190190558785526002909352818420805490911690555192935084927fddf252ad1be2c89b69c2b068fc378daa952ba7f163c4a11628f55a4df523b3ef908390a45050565b611bb18383611d92565b611bbe6000848484611bda565b6106c85760405162461bcd60e51b81526004016106279061254b565b60006001600160a01b0384163b15611cdc57604051630a85bd0160e11b81526001600160a01b0385169063150b7a0290611c1e903390899088908890600401612460565b602060405180830381600087803b158015611c3857600080fd5b505af1925050508015611c68575060408051601f3d908101601f19168201909252611c659181019061230e565b60015b611cc2573d808015611c96576040519150601f19603f3d011682016040523d82523d6000602084013e611c9b565b606091505b508051611cba5760405162461bcd60e51b81526004016106279061254b565b805181602001fd5b6001600160e01b031916630a85bd0160e11b1490506112b9565b506001949350505050565b60606000611cf483611f1d565b600101905060008167ffffffffffffffff811115611d2257634e487b7160e01b600052604160045260246000fd5b6040519080825280601f01601f191660200182016040528015611d4c576020820181803683370190505b5090508181016020015b600019016f181899199a1a9b1b9c1cb0b131b232b360811b600a86061a8153600a8504945084611d8557611d8a565b611d56565b509392505050565b6001600160a01b038216611de85760405162461bcd60e51b815260206004820181905260248201527f4552433732313a206d696e7420746f20746865207a65726f20616464726573736044820152606401610627565b6000818152600260205260409020546001600160a01b031615611e4d5760405162461bcd60e51b815260206004820152601c60248201527f4552433732313a20746f6b656e20616c7265616479206d696e746564000000006044820152606401610627565b6000818152600260205260409020546001600160a01b031615611eb25760405162461bcd60e51b815260206004820152601c60248201527f4552433732313a20746f6b656e20616c7265616479206d696e746564000000006044820152606401610627565b6001600160a01b038216600081815260036020908152604080832080546001019055848352600290915280822080546001600160a01b0319168417905551839291907fddf252ad1be2c89b69c2b068fc378daa952ba7f163c4a11628f55a4df523b3ef908290a45050565b60008072184f03e93ff9f4daa797ed6e38ed64bf6a1f0160401b8310611f5c5772184f03e93ff9f4daa797ed6e38ed64bf6a1f0160401b830492506040015b6d04ee2d6d415b85acef81000000008310611f88576d04ee2d6d415b85acef8100000000830492506020015b662386f26fc100008310611fa657662386f26fc10000830492506010015b6305f5e1008310611fbe576305f5e100830492506008015b6127108310611fd257612710830492506004015b60648310611fe4576064830492506002015b600a83106104f35760010192915050565b6040805160c081018252600080825260208201819052918101829052606081018290526080810182905260a081019190915290565b50805461203690612663565b6000825580601f10612046575050565b601f01602090049060005260206000209081019061078591906120e8565b82805461207090612663565b90600052602060002090601f01602090048101928261209257600085556120d8565b82601f106120ab57805160ff19168380011785556120d8565b828001600101855582156120d8579182015b828111156120d85782518255916020019190600101906120bd565b506120e49291506120e8565b5090565b5b808211156120e457600081556001016120e9565b600067ffffffffffffffff80841115612118576121186126cf565b604051601f8501601f19908116603f01168101908282118183101715612140576121406126cf565b8160405280935085815286868601111561215957600080fd5b858560208301376000602087830101525050509392505050565b80356001600160a01b038116811461218a57600080fd5b919050565b6000602082840312156121a0578081fd5b610d0882612173565b600080604083850312156121bb578081fd5b6121c483612173565b91506121d260208401612173565b90509250929050565b6000806000606084860312156121ef578081fd5b6121f884612173565b925061220660208501612173565b9150604084013590509250925092565b6000806000806080858703121561222b578081fd5b61223485612173565b935061224260208601612173565b925060408501359150606085013567ffffffffffffffff811115612264578182fd5b8501601f81018713612274578182fd5b612283878235602084016120fd565b91505092959194509250565b600080604083850312156122a1578182fd5b6122aa83612173565b9150602083013580151581146122be578182fd5b809150509250929050565b600080604083850312156122db578182fd5b6122e483612173565b946020939093013593505050565b600060208284031215612303578081fd5b8135610d08816126e5565b60006020828403121561231f578081fd5b8151610d08816126e5565b6000806040838503121561233c578182fd5b823567ffffffffffffffff811115612352578283fd5b8301601f81018513612362578283fd5b612371858235602084016120fd565b95602094909401359450505050565b600060208284031215612391578081fd5b5035919050565b600080604083850312156123aa578182fd5b50508035926020909101359150565b600081518084526123d1816020860160208601612637565b601f01601f19169290920160200192915050565b80518252602081015160018060a01b03808216602085015280604084015116604085015280606084015116606085015250506080810151608083015260a0810151151560a08301525050565b60008351612443818460208801612637565b835190830190612457818360208801612637565b01949350505050565b6001600160a01b0385811682528416602082015260408101839052608060608201819052600090612493908301846123b9565b9695505050505050565b6020808252825182820181905260009190848201906040850190845b818110156124df576124cc8385516123e5565b9284019260c092909201916001016124b9565b50909695505050505050565b602081526000610d0860208301846123b9565b6020808252602d908201527f4552433732313a2063616c6c6572206973206e6f7420746f6b656e206f776e6560408201526c1c881bdc88185c1c1c9bdd9959609a1b606082015260800190565b60208082526032908201527f4552433732313a207472616e7366657220746f206e6f6e20455243373231526560408201527131b2b4bb32b91034b6b83632b6b2b73a32b960711b606082015260800190565b60208082526025908201527f4552433732313a207472616e736665722066726f6d20696e636f72726563742060408201526437bbb732b960d91b606082015260800190565b6020808252601590820152742cb7ba9030b932903737ba103a34329037bbb732b960591b604082015260600190565b60c081016104f382846123e5565b60008219821115612632576126326126b9565b500190565b60005b8381101561265257818101518382015260200161263a565b838111156111025750506000910152565b600181811c9082168061267757607f821691505b6020821081141561269857634e487b7160e01b600052602260045260246000fd5b50919050565b60006000198214156126b2576126b26126b9565b5060010190565b634e487b7160e01b600052601160045260246000fd5b634e487b7160e01b600052604160045260246000fd5b6001600160e01b03198116811461078557600080fdfea26469706673582212206b6bdad0e53b79f8f47acb75a67e5179371c114c2eead7a4a565d28d0377057a64736f6c63430008040033",
  "linkReferences": {},
  "deployedLinkReferences": {}
}